{
  "_format": "hh-sol-artifact-1",
  "contractName": "DemoApp",
  "sourceName": "contracts/DemoApp.sol",
  "abi": [
    {
      "inputs": [],
      "stateMutability": "nonpayable",
      "type": "constructor"
    },
    {
      "inputs": [
        {
          "internalType": "string",
          "name": "name",
          "type": "string"
        },
        {
          "internalType": "string",
          "name": "message",
          "type": "string"
        }
      ],
      "name": "buyChai",
      "outputs": [],
      "stateMutability": "payable",
      "type": "function"
    },
    {
      "inputs": [],
      "name": "getMemo",
      "outputs": [
        {
          "components": [
            {
              "internalType": "string",
              "name": "name",
              "type": "string"
            },
            {
              "internalType": "string",
              "name": "message",
              "type": "string"
            },
            {
              "internalType": "uint256",
              "name": "time",
              "type": "uint256"
            },
            {
              "internalType": "address",
              "name": "from",
              "type": "address"
            }
          ],
          "internalType": "struct DemoApp.Memo[]",
          "name": "",
          "type": "tuple[]"
        }
      ],
      "stateMutability": "view",
      "type": "function"
    },
    {
      "inputs": [],
      "name": "showBalance",
      "outputs": [
        {
          "internalType": "uint256",
          "name": "",
          "type": "uint256"
        }
      ],
      "stateMutability": "view",
      "type": "function"
    },
    {
      "inputs": [],
      "name": "transferToZithin",
      "outputs": [],
      "stateMutability": "payable",
      "type": "function"
    }
  ],
  "bytecode": "0x608060405273c6ee3a2b3db0f58b91b16da71105d51628b8d294600260006101000a81548173ffffffffffffffffffffffffffffffffffffffff021916908373ffffffffffffffffffffffffffffffffffffffff16021790555034801561006557600080fd5b5033600160006101000a81548173ffffffffffffffffffffffffffffffffffffffff021916908373ffffffffffffffffffffffffffffffffffffffff160217905550610d82806100b66000396000f3fe60806040526004361061003f5760003560e01c80631efa9918146100445780636a13d8591461004e57806381b2d07b1461006a5780638aa7b4b114610095575b600080fd5b61004c6100c0565b005b610068600480360381019061006391906106bc565b6101ad565b005b34801561007657600080fd5b5061007f61033e565b60405161008c919061074d565b60405180910390f35b3480156100a157600080fd5b506100aa61037f565b6040516100b79190610963565b60405180910390f35b6000600160009054906101000a900473ffffffffffffffffffffffffffffffffffffffff1673ffffffffffffffffffffffffffffffffffffffff1631905060008111610141576040517f08c379a0000000000000000000000000000000000000000000000000000000008152600401610138906109e2565b60405180910390fd5b600160009054906101000a900473ffffffffffffffffffffffffffffffffffffffff1673ffffffffffffffffffffffffffffffffffffffff166108fc829081150290604051600060405180830381858888f193505050501580156101a9573d6000803e3d6000fd5b5050565b600034116101f0576040517f08c379a00000000000000000000000000000000000000000000000000000000081526004016101e790610a4e565b60405180910390fd5b600160009054906101000a900473ffffffffffffffffffffffffffffffffffffffff1673ffffffffffffffffffffffffffffffffffffffff166108fc349081150290604051600060405180830381858888f19350505050158015610258573d6000803e3d6000fd5b50600060405180608001604052808481526020018381526020014281526020013373ffffffffffffffffffffffffffffffffffffffff16815250908060018154018082558091505060019003906000526020600020906004020160009091909190915060008201518160000190816102d09190610c7a565b5060208201518160010190816102e69190610c7a565b506040820151816002015560608201518160030160006101000a81548173ffffffffffffffffffffffffffffffffffffffff021916908373ffffffffffffffffffffffffffffffffffffffff16021790555050505050565b6000600160009054906101000a900473ffffffffffffffffffffffffffffffffffffffff1673ffffffffffffffffffffffffffffffffffffffff1631905090565b60606000805480602002602001604051908101604052809291908181526020016000905b8282101561055957838290600052602060002090600402016040518060800160405290816000820180546103d690610a9d565b80601f016020809104026020016040519081016040528092919081815260200182805461040290610a9d565b801561044f5780601f106104245761010080835404028352916020019161044f565b820191906000526020600020905b81548152906001019060200180831161043257829003601f168201915b5050505050815260200160018201805461046890610a9d565b80601f016020809104026020016040519081016040528092919081815260200182805461049490610a9d565b80156104e15780601f106104b6576101008083540402835291602001916104e1565b820191906000526020600020905b8154815290600101906020018083116104c457829003601f168201915b50505050508152602001600282015481526020016003820160009054906101000a900473ffffffffffffffffffffffffffffffffffffffff1673ffffffffffffffffffffffffffffffffffffffff1673ffffffffffffffffffffffffffffffffffffffff1681525050815260200190600101906103a3565b50505050905090565b6000604051905090565b600080fd5b600080fd5b600080fd5b600080fd5b6000601f19601f8301169050919050565b7f4e487b7100000000000000000000000000000000000000000000000000000000600052604160045260246000fd5b6105c982610580565b810181811067ffffffffffffffff821117156105e8576105e7610591565b5b80604052505050565b60006105fb610562565b905061060782826105c0565b919050565b600067ffffffffffffffff82111561062757610626610591565b5b61063082610580565b9050602081019050919050565b82818337600083830152505050565b600061065f61065a8461060c565b6105f1565b90508281526020810184848401111561067b5761067a61057b565b5b61068684828561063d565b509392505050565b600082601f8301126106a3576106a2610576565b5b81356106b384826020860161064c565b91505092915050565b600080604083850312156106d3576106d261056c565b5b600083013567ffffffffffffffff8111156106f1576106f0610571565b5b6106fd8582860161068e565b925050602083013567ffffffffffffffff81111561071e5761071d610571565b5b61072a8582860161068e565b9150509250929050565b6000819050919050565b61074781610734565b82525050565b6000602082019050610762600083018461073e565b92915050565b600081519050919050565b600082825260208201905092915050565b6000819050602082019050919050565b600081519050919050565b600082825260208201905092915050565b60005b838110156107ce5780820151818401526020810190506107b3565b60008484015250505050565b60006107e582610794565b6107ef818561079f565b93506107ff8185602086016107b0565b61080881610580565b840191505092915050565b61081c81610734565b82525050565b600073ffffffffffffffffffffffffffffffffffffffff82169050919050565b600061084d82610822565b9050919050565b61085d81610842565b82525050565b6000608083016000830151848203600086015261088082826107da565b9150506020830151848203602086015261089a82826107da565b91505060408301516108af6040860182610813565b5060608301516108c26060860182610854565b508091505092915050565b60006108d98383610863565b905092915050565b6000602082019050919050565b60006108f982610768565b6109038185610773565b93508360208202850161091585610784565b8060005b85811015610951578484038952815161093285826108cd565b945061093d836108e1565b925060208a01995050600181019050610919565b50829750879550505050505092915050565b6000602082019050818103600083015261097d81846108ee565b905092915050565b600082825260208201905092915050565b7f4e6f2062616c616e636520746f207472616e7366657200000000000000000000600082015250565b60006109cc601683610985565b91506109d782610996565b602082019050919050565b600060208201905081810360008301526109fb816109bf565b9050919050565b7f506c656173652073656e642065746865722067726561746572207468616e2030600082015250565b6000610a38602083610985565b9150610a4382610a02565b602082019050919050565b60006020820190508181036000830152610a6781610a2b565b9050919050565b7f4e487b7100000000000000000000000000000000000000000000000000000000600052602260045260246000fd5b60006002820490506001821680610ab557607f821691505b602082108103610ac857610ac7610a6e565b5b50919050565b60008190508160005260206000209050919050565b60006020601f8301049050919050565b600082821b905092915050565b600060088302610b307fffffffffffffffffffffffffffffffffffffffffffffffffffffffffffffffff82610af3565b610b3a8683610af3565b95508019841693508086168417925050509392505050565b6000819050919050565b6000610b77610b72610b6d84610734565b610b52565b610734565b9050919050565b6000819050919050565b610b9183610b5c565b610ba5610b9d82610b7e565b848454610b00565b825550505050565b600090565b610bba610bad565b610bc5818484610b88565b505050565b5b81811015610be957610bde600082610bb2565b600181019050610bcb565b5050565b601f821115610c2e57610bff81610ace565b610c0884610ae3565b81016020851015610c17578190505b610c2b610c2385610ae3565b830182610bca565b50505b505050565b600082821c905092915050565b6000610c5160001984600802610c33565b1980831691505092915050565b6000610c6a8383610c40565b9150826002028217905092915050565b610c8382610794565b67ffffffffffffffff811115610c9c57610c9b610591565b5b610ca68254610a9d565b610cb1828285610bed565b600060209050601f831160018114610ce45760008415610cd2578287015190505b610cdc8582610c5e565b865550610d44565b601f198416610cf286610ace565b60005b82811015610d1a57848901518255600182019150602085019450602081019050610cf5565b86831015610d375784890151610d33601f891682610c40565b8355505b6001600288020188555050505b50505050505056fea2646970667358221220fbf5afd22ee0e4de9addce24e3e392749e74916ffb7f790e2136b746dd174ce564736f6c63430008130033",
  "linkReferences": {},
  "deployedLinkReferences": {}
}